{
  "_format": "hh-sol-artifact-1",
  "contractName": "Marketplace",
  "sourceName": "contracts/Marketplace.sol",
  "abi": [
    {
      "inputs": [
        {
          "internalType": "uint256",
          "name": "_feePercent",
          "type": "uint256"
        }
      ],
      "stateMutability": "nonpayable",
      "type": "constructor"
    },
    {
      "anonymous": false,
      "inputs": [
        {
          "indexed": false,
          "internalType": "uint256",
          "name": "itemId",
          "type": "uint256"
        },
        {
          "indexed": true,
          "internalType": "address",
          "name": "nft",
          "type": "address"
        },
        {
          "indexed": false,
          "internalType": "uint256",
          "name": "tokenId",
          "type": "uint256"
        },
        {
          "indexed": false,
          "internalType": "uint256",
          "name": "price",
          "type": "uint256"
        },
        {
          "indexed": true,
          "internalType": "address",
          "name": "seller",
          "type": "address"
        },
        {
          "indexed": true,
          "internalType": "address",
          "name": "buyer",
          "type": "address"
        }
      ],
      "name": "Bought",
      "type": "event"
    },
    {
      "anonymous": false,
      "inputs": [
        {
          "indexed": false,
          "internalType": "uint256",
          "name": "itemId",
          "type": "uint256"
        },
        {
          "indexed": true,
          "internalType": "address",
          "name": "nft",
          "type": "address"
        },
        {
          "indexed": false,
          "internalType": "uint256",
          "name": "tokenId",
          "type": "uint256"
        },
        {
          "indexed": false,
          "internalType": "uint256",
          "name": "price",
          "type": "uint256"
        },
        {
          "indexed": true,
          "internalType": "address",
          "name": "seller",
          "type": "address"
        }
      ],
      "name": "Offered",
      "type": "event"
    },
    {
      "inputs": [],
      "name": "feeAccount",
      "outputs": [
        {
          "internalType": "address payable",
          "name": "",
          "type": "address"
        }
      ],
      "stateMutability": "view",
      "type": "function"
    },
    {
      "inputs": [],
      "name": "feePercent",
      "outputs": [
        {
          "internalType": "uint256",
          "name": "",
          "type": "uint256"
        }
      ],
      "stateMutability": "view",
      "type": "function"
    },
    {
      "inputs": [],
      "name": "fetchMarketItems",
      "outputs": [
        {
          "components": [
            {
              "internalType": "uint256",
              "name": "itemId",
              "type": "uint256"
            },
            {
              "internalType": "contract IERC721",
              "name": "nft",
              "type": "address"
            },
            {
              "internalType": "uint256",
              "name": "tokenId",
              "type": "uint256"
            },
            {
              "internalType": "uint256",
              "name": "price",
              "type": "uint256"
            },
            {
              "internalType": "address payable",
              "name": "seller",
              "type": "address"
            },
            {
              "internalType": "bool",
              "name": "sold",
              "type": "bool"
            }
          ],
          "internalType": "struct Marketplace.Item[]",
          "name": "",
          "type": "tuple[]"
        }
      ],
      "stateMutability": "view",
      "type": "function"
    },
    {
      "inputs": [],
      "name": "itemCount",
      "outputs": [
        {
          "internalType": "uint256",
          "name": "",
          "type": "uint256"
        }
      ],
      "stateMutability": "view",
      "type": "function"
    },
    {
      "inputs": [
        {
          "internalType": "uint256",
          "name": "",
          "type": "uint256"
        }
      ],
      "name": "items",
      "outputs": [
        {
          "internalType": "uint256",
          "name": "itemId",
          "type": "uint256"
        },
        {
          "internalType": "contract IERC721",
          "name": "nft",
          "type": "address"
        },
        {
          "internalType": "uint256",
          "name": "tokenId",
          "type": "uint256"
        },
        {
          "internalType": "uint256",
          "name": "price",
          "type": "uint256"
        },
        {
          "internalType": "address payable",
          "name": "seller",
          "type": "address"
        },
        {
          "internalType": "bool",
          "name": "sold",
          "type": "bool"
        }
      ],
      "stateMutability": "view",
      "type": "function"
    },
    {
      "inputs": [
        {
          "internalType": "contract ERC721",
          "name": "_nft",
          "type": "address"
        },
        {
          "internalType": "uint256",
          "name": "_tokenId",
          "type": "uint256"
        },
        {
          "internalType": "uint256",
          "name": "_price",
          "type": "uint256"
        }
      ],
      "name": "makeItem",
      "outputs": [],
      "stateMutability": "nonpayable",
      "type": "function"
    },
    {
      "inputs": [
        {
          "internalType": "uint256",
          "name": "_itemId",
          "type": "uint256"
        }
      ],
      "name": "purchaseItem",
      "outputs": [],
      "stateMutability": "payable",
      "type": "function"
    },
    {
      "inputs": [
        {
          "internalType": "uint256",
          "name": "tokenId",
          "type": "uint256"
        },
        {
          "internalType": "uint256",
          "name": "price",
          "type": "uint256"
        }
      ],
      "name": "relistItem",
      "outputs": [],
      "stateMutability": "nonpayable",
      "type": "function"
    }
  ],
  "bytecode": "0x60c06040523480156200001157600080fd5b50604051620018313803806200183183398181016040528101906200003791906200009c565b60016000819055503373ffffffffffffffffffffffffffffffffffffffff1660808173ffffffffffffffffffffffffffffffffffffffff1660601b815250508060a0818152505050620000ec565b6000815190506200009681620000d2565b92915050565b600060208284031215620000af57600080fd5b6000620000bf8482850162000085565b91505092915050565b6000819050919050565b620000dd81620000c8565b8114620000e957600080fd5b50565b60805160601c60a05161170e6200012360003960008181610580015261067f01526000818161040e0152610845015261170e6000f3fe60806040526004361061007b5760003560e01c80637fd6f15c1161004e5780637fd6f15c1461012a578063bfb231d214610155578063d38ea5bf14610197578063fa00afc7146101b35761007b565b80630f08efe01461008057806365e17c9d146100ab5780636bfb0d01146100d657806375ad1b1214610101575b600080fd5b34801561008c57600080fd5b506100956101dc565b6040516100a2919061113d565b60405180910390f35b3480156100b757600080fd5b506100c061040c565b6040516100cd91906110eb565b60405180910390f35b3480156100e257600080fd5b506100eb610430565b6040516100f8919061121f565b60405180910390f35b34801561010d57600080fd5b5061012860048036038101906101239190610e65565b610436565b005b34801561013657600080fd5b5061013f61057e565b60405161014c919061121f565b60405180910390f35b34801561016157600080fd5b5061017c60048036038101906101779190610e3c565b6105a2565b60405161018e9695949392919061123a565b60405180910390f35b6101b160048036038101906101ac9190610e3c565b61062b565b005b3480156101bf57600080fd5b506101da60048036038101906101d59190610ded565b610a8d565b005b606060008060015467ffffffffffffffff811115610223577f4e487b7100000000000000000000000000000000000000000000000000000000600052604160045260246000fd5b60405190808252806020026020018201604052801561025c57816020015b610249610d5f565b8152602001906001900390816102415790505b50905060005b6001548110156104035760006002600060018461027f919061131c565b81526020019081526020016000206000015490506000600260008381526020019081526020016000209050806040518060c0016040529081600082015481526020016001820160009054906101000a900473ffffffffffffffffffffffffffffffffffffffff1673ffffffffffffffffffffffffffffffffffffffff1673ffffffffffffffffffffffffffffffffffffffff16815260200160028201548152602001600382015481526020016004820160009054906101000a900473ffffffffffffffffffffffffffffffffffffffff1673ffffffffffffffffffffffffffffffffffffffff1673ffffffffffffffffffffffffffffffffffffffff1681526020016004820160149054906101000a900460ff1615151515815250508486815181106103d4577f4e487b7100000000000000000000000000000000000000000000000000000000600052603260045260246000fd5b60200260200101819052506001856103ec919061131c565b9450505080806103fb906114c1565b915050610262565b50809250505090565b7f000000000000000000000000000000000000000000000000000000000000000081565b60015481565b6002600054141561047c576040517f08c379a0000000000000000000000000000000000000000000000000000000008152600401610473906111ff565b60405180910390fd5b60026000819055503373ffffffffffffffffffffffffffffffffffffffff166002600084815260200190815260200160002060040160009054906101000a900473ffffffffffffffffffffffffffffffffffffffff1673ffffffffffffffffffffffffffffffffffffffff1614610528576040517f08c379a000000000000000000000000000000000000000000000000000000000815260040161051f906111df565b60405180910390fd5b60006002600084815260200190815260200160002060040160146101000a81548160ff02191690831515021790555080600260008481526020019081526020016000206003018190555060016000819055505050565b7f000000000000000000000000000000000000000000000000000000000000000081565b60026020528060005260406000206000915090508060000154908060010160009054906101000a900473ffffffffffffffffffffffffffffffffffffffff16908060020154908060030154908060040160009054906101000a900473ffffffffffffffffffffffffffffffffffffffff16908060040160149054906101000a900460ff16905086565b60026000541415610671576040517f08c379a0000000000000000000000000000000000000000000000000000000008152600401610668906111ff565b60405180910390fd5b6002600081905550600060647f000000000000000000000000000000000000000000000000000000000000000060646106aa919061131c565b60026000858152602001908152602001600020600301546106cb91906113a3565b6106d59190611372565b9050600060026000848152602001908152602001600020905060008311801561070057506001548311155b61073f576040517f08c379a0000000000000000000000000000000000000000000000000000000008152600401610736906111bf565b60405180910390fd5b81341015610782576040517f08c379a00000000000000000000000000000000000000000000000000000000081526004016107799061119f565b60405180910390fd5b8060040160149054906101000a900460ff16156107d4576040517f08c379a00000000000000000000000000000000000000000000000000000000081526004016107cb9061115f565b60405180910390fd5b8060040160009054906101000a900473ffffffffffffffffffffffffffffffffffffffff1673ffffffffffffffffffffffffffffffffffffffff166108fc82600301549081150290604051600060405180830381858888f19350505050158015610842573d6000803e3d6000fd5b507f000000000000000000000000000000000000000000000000000000000000000073ffffffffffffffffffffffffffffffffffffffff166108fc82600301548461088d91906113fd565b9081150290604051600060405180830381858888f193505050501580156108b8573d6000803e3d6000fd5b5060018160040160146101000a81548160ff0219169083151502179055508060010160009054906101000a900473ffffffffffffffffffffffffffffffffffffffff1673ffffffffffffffffffffffffffffffffffffffff166323b872dd303384600201546040518463ffffffff1660e01b815260040161093b93929190611106565b600060405180830381600087803b15801561095557600080fd5b505af1158015610969573d6000803e3d6000fd5b505050503373ffffffffffffffffffffffffffffffffffffffff168160040160009054906101000a900473ffffffffffffffffffffffffffffffffffffffff1673ffffffffffffffffffffffffffffffffffffffff168260010160009054906101000a900473ffffffffffffffffffffffffffffffffffffffff1673ffffffffffffffffffffffffffffffffffffffff167f8b4c9c8a607d67b321582dd8461041b1dc2ceeca70c8b7f37f8e02095cf2e76d8685600201548660030154604051610a359392919061129b565b60405180910390a4338160040160006101000a81548173ffffffffffffffffffffffffffffffffffffffff021916908373ffffffffffffffffffffffffffffffffffffffff1602179055505050600160008190555050565b60026000541415610ad3576040517f08c379a0000000000000000000000000000000000000000000000000000000008152600401610aca906111ff565b60405180910390fd5b600260008190555060008111610b1e576040517f08c379a0000000000000000000000000000000000000000000000000000000008152600401610b159061117f565b60405180910390fd5b60016000815480929190610b31906114c1565b91905055508273ffffffffffffffffffffffffffffffffffffffff166323b872dd3330856040518463ffffffff1660e01b8152600401610b7393929190611106565b600060405180830381600087803b158015610b8d57600080fd5b505af1158015610ba1573d6000803e3d6000fd5b505050506040518060c0016040528060015481526020018473ffffffffffffffffffffffffffffffffffffffff1681526020018381526020018281526020013373ffffffffffffffffffffffffffffffffffffffff168152602001600015158152506002600060015481526020019081526020016000206000820151816000015560208201518160010160006101000a81548173ffffffffffffffffffffffffffffffffffffffff021916908373ffffffffffffffffffffffffffffffffffffffff160217905550604082015181600201556060820151816003015560808201518160040160006101000a81548173ffffffffffffffffffffffffffffffffffffffff021916908373ffffffffffffffffffffffffffffffffffffffff16021790555060a08201518160040160146101000a81548160ff0219169083151502179055509050503373ffffffffffffffffffffffffffffffffffffffff168373ffffffffffffffffffffffffffffffffffffffff167f655a0cf9c8db81512be9a76dc1c5ae5380b8816ce6ad659cd61b715e2999d59a6001548585604051610d4a9392919061129b565b60405180910390a36001600081905550505050565b6040518060c0016040528060008152602001600073ffffffffffffffffffffffffffffffffffffffff1681526020016000815260200160008152602001600073ffffffffffffffffffffffffffffffffffffffff1681526020016000151581525090565b600081359050610dd2816116aa565b92915050565b600081359050610de7816116c1565b92915050565b600080600060608486031215610e0257600080fd5b6000610e1086828701610dc3565b9350506020610e2186828701610dd8565b9250506040610e3286828701610dd8565b9150509250925092565b600060208284031215610e4e57600080fd5b6000610e5c84828501610dd8565b91505092915050565b60008060408385031215610e7857600080fd5b6000610e8685828601610dd8565b9250506020610e9785828601610dd8565b9150509250929050565b6000610ead8383611052565b60c08301905092915050565b610ec281611443565b82525050565b610ed181611443565b82525050565b610ee081611431565b82525050565b6000610ef1826112e2565b610efb81856112fa565b9350610f06836112d2565b8060005b83811015610f37578151610f1e8882610ea1565b9750610f29836112ed565b925050600181019050610f0a565b5085935050505092915050565b610f4d81611455565b82525050565b610f5c81611455565b82525050565b610f6b8161149d565b82525050565b610f7a8161149d565b82525050565b6000610f8d60118361130b565b9150610f9882611568565b602082019050919050565b6000610fb0601f8361130b565b9150610fbb82611591565b602082019050919050565b6000610fd360338361130b565b9150610fde826115ba565b604082019050919050565b6000610ff660128361130b565b915061100182611609565b602082019050919050565b6000611019602a8361130b565b915061102482611632565b604082019050919050565b600061103c601f8361130b565b915061104782611681565b602082019050919050565b60c08201600082015161106860008501826110cd565b50602082015161107b6020850182610f62565b50604082015161108e60408501826110cd565b5060608201516110a160608501826110cd565b5060808201516110b46080850182610eb9565b5060a08201516110c760a0850182610f44565b50505050565b6110d681611493565b82525050565b6110e581611493565b82525050565b60006020820190506111006000830184610ec8565b92915050565b600060608201905061111b6000830186610ed7565b6111286020830185610ed7565b61113560408301846110dc565b949350505050565b600060208201905081810360008301526111578184610ee6565b905092915050565b6000602082019050818103600083015261117881610f80565b9050919050565b6000602082019050818103600083015261119881610fa3565b9050919050565b600060208201905081810360008301526111b881610fc6565b9050919050565b600060208201905081810360008301526111d881610fe9565b9050919050565b600060208201905081810360008301526111f88161100c565b9050919050565b600060208201905081810360008301526112188161102f565b9050919050565b600060208201905061123460008301846110dc565b92915050565b600060c08201905061124f60008301896110dc565b61125c6020830188610f71565b61126960408301876110dc565b61127660608301866110dc565b6112836080830185610ec8565b61129060a0830184610f53565b979650505050505050565b60006060820190506112b060008301866110dc565b6112bd60208301856110dc565b6112ca60408301846110dc565b949350505050565b6000819050602082019050919050565b600081519050919050565b6000602082019050919050565b600082825260208201905092915050565b600082825260208201905092915050565b600061132782611493565b915061133283611493565b9250827fffffffffffffffffffffffffffffffffffffffffffffffffffffffffffffffff038211156113675761136661150a565b5b828201905092915050565b600061137d82611493565b915061138883611493565b92508261139857611397611539565b5b828204905092915050565b60006113ae82611493565b91506113b983611493565b9250817fffffffffffffffffffffffffffffffffffffffffffffffffffffffffffffffff04831182151516156113f2576113f161150a565b5b828202905092915050565b600061140882611493565b915061141383611493565b9250828210156114265761142561150a565b5b828203905092915050565b600061143c82611473565b9050919050565b600061144e82611473565b9050919050565b60008115159050919050565b600061146c82611431565b9050919050565b600073ffffffffffffffffffffffffffffffffffffffff82169050919050565b6000819050919050565b60006114a8826114af565b9050919050565b60006114ba82611473565b9050919050565b60006114cc82611493565b91507fffffffffffffffffffffffffffffffffffffffffffffffffffffffffffffffff8214156114ff576114fe61150a565b5b600182019050919050565b7f4e487b7100000000000000000000000000000000000000000000000000000000600052601160045260246000fd5b7f4e487b7100000000000000000000000000000000000000000000000000000000600052601260045260246000fd5b7f6974656d20616c726561647920736f6c64000000000000000000000000000000600082015250565b7f5072696365206d7573742062652067726561746572207468616e207a65726f00600082015250565b7f6e6f7420656e6f75676820657468657220746f20636f766572206974656d207060008201527f7269636520616e64206d61726b65742066656500000000000000000000000000602082015250565b7f6974656d20646f65736e27742065786973740000000000000000000000000000600082015250565b7f4f6e6c79206974656d206f776e65722063616e20706572666f726d207468697360008201527f206f7065726174696f6e00000000000000000000000000000000000000000000602082015250565b7f5265656e7472616e637947756172643a207265656e7472616e742063616c6c00600082015250565b6116b381611461565b81146116be57600080fd5b50565b6116ca81611493565b81146116d557600080fd5b5056fea264697066735822122067e4e9f2da082806a8946ac749239c8896789d4974e1d08600c6124c299aa22764736f6c63430008040033",
  "linkReferences": {},
  "deployedLinkReferences": {}
}