{
  "_format": "hh-sol-artifact-1",
  "contractName": "NFT",
  "sourceName": "contracts/MyNFT.sol",
  "abi": [
    {
      "inputs": [],
      "stateMutability": "nonpayable",
      "type": "constructor"
    },
    {
      "anonymous": false,
      "inputs": [
        {
          "indexed": true,
          "internalType": "address",
          "name": "owner",
          "type": "address"
        },
        {
          "indexed": true,
          "internalType": "address",
          "name": "approved",
          "type": "address"
        },
        {
          "indexed": true,
          "internalType": "uint256",
          "name": "tokenId",
          "type": "uint256"
        }
      ],
      "name": "Approval",
      "type": "event"
    },
    {
      "anonymous": false,
      "inputs": [
        {
          "indexed": true,
          "internalType": "address",
          "name": "owner",
          "type": "address"
        },
        {
          "indexed": true,
          "internalType": "address",
          "name": "operator",
          "type": "address"
        },
        {
          "indexed": false,
          "internalType": "bool",
          "name": "approved",
          "type": "bool"
        }
      ],
      "name": "ApprovalForAll",
      "type": "event"
    },
    {
      "anonymous": false,
      "inputs": [
        {
          "indexed": true,
          "internalType": "address",
          "name": "previousOwner",
          "type": "address"
        },
        {
          "indexed": true,
          "internalType": "address",
          "name": "newOwner",
          "type": "address"
        }
      ],
      "name": "OwnershipTransferred",
      "type": "event"
    },
    {
      "anonymous": false,
      "inputs": [
        {
          "indexed": true,
          "internalType": "address",
          "name": "from",
          "type": "address"
        },
        {
          "indexed": true,
          "internalType": "address",
          "name": "to",
          "type": "address"
        },
        {
          "indexed": true,
          "internalType": "uint256",
          "name": "tokenId",
          "type": "uint256"
        }
      ],
      "name": "Transfer",
      "type": "event"
    },
    {
      "inputs": [],
      "name": "TOTAL_SUPPLY",
      "outputs": [
        {
          "internalType": "uint256",
          "name": "",
          "type": "uint256"
        }
      ],
      "stateMutability": "view",
      "type": "function"
    },
    {
      "inputs": [
        {
          "internalType": "address",
          "name": "to",
          "type": "address"
        },
        {
          "internalType": "uint256",
          "name": "tokenId",
          "type": "uint256"
        }
      ],
      "name": "approve",
      "outputs": [],
      "stateMutability": "nonpayable",
      "type": "function"
    },
    {
      "inputs": [
        {
          "internalType": "address",
          "name": "owner",
          "type": "address"
        }
      ],
      "name": "balanceOf",
      "outputs": [
        {
          "internalType": "uint256",
          "name": "",
          "type": "uint256"
        }
      ],
      "stateMutability": "view",
      "type": "function"
    },
    {
      "inputs": [],
      "name": "baseTokenURI",
      "outputs": [
        {
          "internalType": "string",
          "name": "",
          "type": "string"
        }
      ],
      "stateMutability": "view",
      "type": "function"
    },
    {
      "inputs": [
        {
          "internalType": "uint256",
          "name": "tokenId",
          "type": "uint256"
        }
      ],
      "name": "getApproved",
      "outputs": [
        {
          "internalType": "address",
          "name": "",
          "type": "address"
        }
      ],
      "stateMutability": "view",
      "type": "function"
    },
    {
      "inputs": [
        {
          "internalType": "address",
          "name": "owner",
          "type": "address"
        },
        {
          "internalType": "address",
          "name": "operator",
          "type": "address"
        }
      ],
      "name": "isApprovedForAll",
      "outputs": [
        {
          "internalType": "bool",
          "name": "",
          "type": "bool"
        }
      ],
      "stateMutability": "view",
      "type": "function"
    },
    {
      "inputs": [],
      "name": "name",
      "outputs": [
        {
          "internalType": "string",
          "name": "",
          "type": "string"
        }
      ],
      "stateMutability": "view",
      "type": "function"
    },
    {
      "inputs": [],
      "name": "owner",
      "outputs": [
        {
          "internalType": "address",
          "name": "",
          "type": "address"
        }
      ],
      "stateMutability": "view",
      "type": "function"
    },
    {
      "inputs": [
        {
          "internalType": "uint256",
          "name": "tokenId",
          "type": "uint256"
        }
      ],
      "name": "ownerOf",
      "outputs": [
        {
          "internalType": "address",
          "name": "",
          "type": "address"
        }
      ],
      "stateMutability": "view",
      "type": "function"
    },
    {
      "inputs": [
        {
          "internalType": "address",
          "name": "dest",
          "type": "address"
        }
      ],
      "name": "payments",
      "outputs": [
        {
          "internalType": "uint256",
          "name": "",
          "type": "uint256"
        }
      ],
      "stateMutability": "view",
      "type": "function"
    },
    {
      "inputs": [],
      "name": "renounceOwnership",
      "outputs": [],
      "stateMutability": "nonpayable",
      "type": "function"
    },
    {
      "inputs": [
        {
          "internalType": "address",
          "name": "to",
          "type": "address"
        },
        {
          "internalType": "string",
          "name": "uri",
          "type": "string"
        }
      ],
      "name": "safeMint",
      "outputs": [],
      "stateMutability": "payable",
      "type": "function"
    },
    {
      "inputs": [
        {
          "internalType": "address",
          "name": "from",
          "type": "address"
        },
        {
          "internalType": "address",
          "name": "to",
          "type": "address"
        },
        {
          "internalType": "uint256",
          "name": "tokenId",
          "type": "uint256"
        }
      ],
      "name": "safeTransferFrom",
      "outputs": [],
      "stateMutability": "nonpayable",
      "type": "function"
    },
    {
      "inputs": [
        {
          "internalType": "address",
          "name": "from",
          "type": "address"
        },
        {
          "internalType": "address",
          "name": "to",
          "type": "address"
        },
        {
          "internalType": "uint256",
          "name": "tokenId",
          "type": "uint256"
        },
        {
          "internalType": "bytes",
          "name": "_data",
          "type": "bytes"
        }
      ],
      "name": "safeTransferFrom",
      "outputs": [],
      "stateMutability": "nonpayable",
      "type": "function"
    },
    {
      "inputs": [
        {
          "internalType": "address",
          "name": "operator",
          "type": "address"
        },
        {
          "internalType": "bool",
          "name": "approved",
          "type": "bool"
        }
      ],
      "name": "setApprovalForAll",
      "outputs": [],
      "stateMutability": "nonpayable",
      "type": "function"
    },
    {
      "inputs": [
        {
          "internalType": "string",
          "name": "_baseTokenURI",
          "type": "string"
        }
      ],
      "name": "setBaseTokenURI",
      "outputs": [],
      "stateMutability": "nonpayable",
      "type": "function"
    },
    {
      "inputs": [
        {
          "internalType": "bytes4",
          "name": "interfaceId",
          "type": "bytes4"
        }
      ],
      "name": "supportsInterface",
      "outputs": [
        {
          "internalType": "bool",
          "name": "",
          "type": "bool"
        }
      ],
      "stateMutability": "view",
      "type": "function"
    },
    {
      "inputs": [],
      "name": "symbol",
      "outputs": [
        {
          "internalType": "string",
          "name": "",
          "type": "string"
        }
      ],
      "stateMutability": "view",
      "type": "function"
    },
    {
      "inputs": [
        {
          "internalType": "uint256",
          "name": "index",
          "type": "uint256"
        }
      ],
      "name": "tokenByIndex",
      "outputs": [
        {
          "internalType": "uint256",
          "name": "",
          "type": "uint256"
        }
      ],
      "stateMutability": "view",
      "type": "function"
    },
    {
      "inputs": [
        {
          "internalType": "address",
          "name": "owner",
          "type": "address"
        },
        {
          "internalType": "uint256",
          "name": "index",
          "type": "uint256"
        }
      ],
      "name": "tokenOfOwnerByIndex",
      "outputs": [
        {
          "internalType": "uint256",
          "name": "",
          "type": "uint256"
        }
      ],
      "stateMutability": "view",
      "type": "function"
    },
    {
      "inputs": [
        {
          "internalType": "uint256",
          "name": "tokenId",
          "type": "uint256"
        }
      ],
      "name": "tokenURI",
      "outputs": [
        {
          "internalType": "string",
          "name": "",
          "type": "string"
        }
      ],
      "stateMutability": "view",
      "type": "function"
    },
    {
      "inputs": [],
      "name": "totalSupply",
      "outputs": [
        {
          "internalType": "uint256",
          "name": "",
          "type": "uint256"
        }
      ],
      "stateMutability": "view",
      "type": "function"
    },
    {
      "inputs": [
        {
          "internalType": "address",
          "name": "from",
          "type": "address"
        },
        {
          "internalType": "address",
          "name": "to",
          "type": "address"
        },
        {
          "internalType": "uint256",
          "name": "tokenId",
          "type": "uint256"
        }
      ],
      "name": "transferFrom",
      "outputs": [],
      "stateMutability": "nonpayable",
      "type": "function"
    },
    {
      "inputs": [
        {
          "internalType": "address",
          "name": "newOwner",
          "type": "address"
        }
      ],
      "name": "transferOwnership",
      "outputs": [],
      "stateMutability": "nonpayable",
      "type": "function"
    },
    {
      "inputs": [
        {
          "internalType": "address payable",
          "name": "payee",
          "type": "address"
        }
      ],
      "name": "withdrawPayments",
      "outputs": [],
      "stateMutability": "nonpayable",
      "type": "function"
    }
  ],
  "bytecode": "0x60a06040523480156200001157600080fd5b506040518060400160405280600381526020017f4e465400000000000000000000000000000000000000000000000000000000008152506040518060400160405280600381526020017f564d53000000000000000000000000000000000000000000000000000000000081525081600090805190602001906200009692919062000230565b508060019080519060200190620000af92919062000230565b505050620000d2620000c66200016260201b60201c565b6200016a60201b60201c565b604051620000e090620002c1565b604051809103906000f080158015620000fd573d6000803e3d6000fd5b5073ffffffffffffffffffffffffffffffffffffffff1660808173ffffffffffffffffffffffffffffffffffffffff1660601b8152505060405180602001604052806000815250600d90805190602001906200015b92919062000230565b5062000353565b600033905090565b6000600b60009054906101000a900473ffffffffffffffffffffffffffffffffffffffff16905081600b60006101000a81548173ffffffffffffffffffffffffffffffffffffffff021916908373ffffffffffffffffffffffffffffffffffffffff1602179055508173ffffffffffffffffffffffffffffffffffffffff168173ffffffffffffffffffffffffffffffffffffffff167f8be0079c531659141344cd1fd0a4f28419497f9722a3daafe3b4186f6b6457e060405160405180910390a35050565b8280546200023e90620002ee565b90600052602060002090601f016020900481019282620002625760008555620002ae565b82601f106200027d57805160ff1916838001178555620002ae565b82800160010185558215620002ae579182015b82811115620002ad57825182559160200191906001019062000290565b5b509050620002bd9190620002cf565b5090565b610d09806200424b83390190565b5b80821115620002ea576000816000905550600101620002d0565b5090565b600060028204905060018216806200030757607f821691505b602082108114156200031e576200031d62000324565b5b50919050565b7f4e487b7100000000000000000000000000000000000000000000000000000000600052602260045260246000fd5b60805160601c613ed26200037960003960008181610f73015261169b0152613ed26000f3fe6080604052600436106101665760003560e01c806370a08231116100d1578063b88d4fde1161008a578063d547cfb711610064578063d547cfb71461053f578063e2982c211461056a578063e985e9c5146105a7578063f2fde38b146105e457610166565b8063b88d4fde146104bd578063c87b56dd146104e6578063d204c45e1461052357610166565b806370a08231146103bf578063715018a6146103fc5780638da5cb5b14610413578063902d55a51461043e57806395d89b4114610469578063a22cb4651461049457610166565b80632f745c59116101235780632f745c591461028d57806330176e13146102ca57806331b3eb94146102f357806342842e0e1461031c5780634f6ccce7146103455780636352211e1461038257610166565b806301ffc9a71461016b57806306fdde03146101a8578063081812fc146101d3578063095ea7b31461021057806318160ddd1461023957806323b872dd14610264575b600080fd5b34801561017757600080fd5b50610192600480360381019061018d9190612c34565b61060d565b60405161019f919061317d565b60405180910390f35b3480156101b457600080fd5b506101bd61061f565b6040516101ca9190613198565b60405180910390f35b3480156101df57600080fd5b506101fa60048036038101906101f59190612cc7565b6106b1565b60405161020791906130fb565b60405180910390f35b34801561021c57600080fd5b5061023760048036038101906102329190612bf8565b610736565b005b34801561024557600080fd5b5061024e61084e565b60405161025b919061345a565b60405180910390f35b34801561027057600080fd5b5061028b60048036038101906102869190612a9e565b61085b565b005b34801561029957600080fd5b506102b460048036038101906102af9190612bf8565b6108bb565b6040516102c1919061345a565b60405180910390f35b3480156102d657600080fd5b506102f160048036038101906102ec9190612c86565b610960565b005b3480156102ff57600080fd5b5061031a60048036038101906103159190612a39565b6109f6565b005b34801561032857600080fd5b50610343600480360381019061033e9190612a9e565b610a7e565b005b34801561035157600080fd5b5061036c60048036038101906103679190612cc7565b610a9e565b604051610379919061345a565b60405180910390f35b34801561038e57600080fd5b506103a960048036038101906103a49190612cc7565b610b35565b6040516103b691906130fb565b60405180910390f35b3480156103cb57600080fd5b506103e660048036038101906103e19190612a10565b610be7565b6040516103f3919061345a565b60405180910390f35b34801561040857600080fd5b50610411610c9f565b005b34801561041f57600080fd5b50610428610d27565b60405161043591906130fb565b60405180910390f35b34801561044a57600080fd5b50610453610d51565b604051610460919061345a565b60405180910390f35b34801561047557600080fd5b5061047e610d57565b60405161048b9190613198565b60405180910390f35b3480156104a057600080fd5b506104bb60048036038101906104b69190612b68565b610de9565b005b3480156104c957600080fd5b506104e460048036038101906104df9190612aed565b610df8565b005b3480156104f257600080fd5b5061050d60048036038101906105089190612cc7565b610e5a565b60405161051a9190613198565b60405180910390f35b61053d60048036038101906105389190612ba4565b610e6c565b005b34801561054b57600080fd5b50610554610ee1565b6040516105619190613198565b60405180910390f35b34801561057657600080fd5b50610591600480360381019061058c9190612a10565b610f6f565b60405161059e919061345a565b60405180910390f35b3480156105b357600080fd5b506105ce60048036038101906105c99190612a62565b611021565b6040516105db919061317d565b60405180910390f35b3480156105f057600080fd5b5061060b60048036038101906106069190612a10565b6110b5565b005b6000610618826111ad565b9050919050565b60606000805461062e906136c2565b80601f016020809104026020016040519081016040528092919081815260200182805461065a906136c2565b80156106a75780601f1061067c576101008083540402835291602001916106a7565b820191906000526020600020905b81548152906001019060200180831161068a57829003601f168201915b5050505050905090565b60006106bc82611227565b6106fb576040517f08c379a00000000000000000000000000000000000000000000000000000000081526004016106f29061337a565b60405180910390fd5b6004600083815260200190815260200160002060009054906101000a900473ffffffffffffffffffffffffffffffffffffffff169050919050565b600061074182610b35565b90508073ffffffffffffffffffffffffffffffffffffffff168373ffffffffffffffffffffffffffffffffffffffff1614156107b2576040517f08c379a00000000000000000000000000000000000000000000000000000000081526004016107a9906133da565b60405180910390fd5b8073ffffffffffffffffffffffffffffffffffffffff166107d1611293565b73ffffffffffffffffffffffffffffffffffffffff16148061080057506107ff816107fa611293565b611021565b5b61083f576040517f08c379a0000000000000000000000000000000000000000000000000000000008152600401610836906132ba565b60405180910390fd5b610849838361129b565b505050565b6000600880549050905090565b61086c610866611293565b82611354565b6108ab576040517f08c379a00000000000000000000000000000000000000000000000000000000081526004016108a2906133fa565b60405180910390fd5b6108b6838383611432565b505050565b60006108c683610be7565b8210610907576040517f08c379a00000000000000000000000000000000000000000000000000000000081526004016108fe906131ba565b60405180910390fd5b600660008473ffffffffffffffffffffffffffffffffffffffff1673ffffffffffffffffffffffffffffffffffffffff168152602001908152602001600020600083815260200190815260200160002054905092915050565b610968611293565b73ffffffffffffffffffffffffffffffffffffffff16610986610d27565b73ffffffffffffffffffffffffffffffffffffffff16146109dc576040517f08c379a00000000000000000000000000000000000000000000000000000000081526004016109d39061339a565b60405180910390fd5b80600d90805190602001906109f292919061280a565b5050565b6109fe611293565b73ffffffffffffffffffffffffffffffffffffffff16610a1c610d27565b73ffffffffffffffffffffffffffffffffffffffff1614610a72576040517f08c379a0000000000000000000000000000000000000000000000000000000008152600401610a699061339a565b60405180910390fd5b610a7b81611699565b50565b610a9983838360405180602001604052806000815250610df8565b505050565b6000610aa861084e565b8210610ae9576040517f08c379a0000000000000000000000000000000000000000000000000000000008152600401610ae09061343a565b60405180910390fd5b60088281548110610b23577f4e487b7100000000000000000000000000000000000000000000000000000000600052603260045260246000fd5b90600052602060002001549050919050565b6000806002600084815260200190815260200160002060009054906101000a900473ffffffffffffffffffffffffffffffffffffffff169050600073ffffffffffffffffffffffffffffffffffffffff168173ffffffffffffffffffffffffffffffffffffffff161415610bde576040517f08c379a0000000000000000000000000000000000000000000000000000000008152600401610bd5906132fa565b60405180910390fd5b80915050919050565b60008073ffffffffffffffffffffffffffffffffffffffff168273ffffffffffffffffffffffffffffffffffffffff161415610c58576040517f08c379a0000000000000000000000000000000000000000000000000000000008152600401610c4f906132da565b60405180910390fd5b600360008373ffffffffffffffffffffffffffffffffffffffff1673ffffffffffffffffffffffffffffffffffffffff168152602001908152602001600020549050919050565b610ca7611293565b73ffffffffffffffffffffffffffffffffffffffff16610cc5610d27565b73ffffffffffffffffffffffffffffffffffffffff1614610d1b576040517f08c379a0000000000000000000000000000000000000000000000000000000008152600401610d129061339a565b60405180910390fd5b610d256000611727565b565b6000600b60009054906101000a900473ffffffffffffffffffffffffffffffffffffffff16905090565b61271081565b606060018054610d66906136c2565b80601f0160208091040260200160405190810160405280929190818152602001828054610d92906136c2565b8015610ddf5780601f10610db457610100808354040283529160200191610ddf565b820191906000526020600020905b815481529060010190602001808311610dc257829003601f168201915b5050505050905090565b610df43383836117ed565b5050565b610e09610e03611293565b83611354565b610e48576040517f08c379a0000000000000000000000000000000000000000000000000000000008152600401610e3f906133fa565b60405180910390fd5b610e548484848461195a565b50505050565b6060610e65826119b6565b9050919050565b6000610e78600c611b08565b90506127108110610ebe576040517f08c379a0000000000000000000000000000000000000000000000000000000008152600401610eb59061341a565b60405180910390fd5b610ec8600c611b16565b610ed28382611b2c565b610edc8183611b4a565b505050565b600d8054610eee906136c2565b80601f0160208091040260200160405190810160405280929190818152602001828054610f1a906136c2565b8015610f675780601f10610f3c57610100808354040283529160200191610f67565b820191906000526020600020905b815481529060010190602001808311610f4a57829003601f168201915b505050505081565b60007f000000000000000000000000000000000000000000000000000000000000000073ffffffffffffffffffffffffffffffffffffffff1663e3a9db1a836040518263ffffffff1660e01b8152600401610fca91906130fb565b60206040518083038186803b158015610fe257600080fd5b505afa158015610ff6573d6000803e3d6000fd5b505050506040513d601f19601f8201168201806040525081019061101a9190612cf0565b9050919050565b6000600560008473ffffffffffffffffffffffffffffffffffffffff1673ffffffffffffffffffffffffffffffffffffffff16815260200190815260200160002060008373ffffffffffffffffffffffffffffffffffffffff1673ffffffffffffffffffffffffffffffffffffffff16815260200190815260200160002060009054906101000a900460ff16905092915050565b6110bd611293565b73ffffffffffffffffffffffffffffffffffffffff166110db610d27565b73ffffffffffffffffffffffffffffffffffffffff1614611131576040517f08c379a00000000000000000000000000000000000000000000000000000000081526004016111289061339a565b60405180910390fd5b600073ffffffffffffffffffffffffffffffffffffffff168173ffffffffffffffffffffffffffffffffffffffff1614156111a1576040517f08c379a0000000000000000000000000000000000000000000000000000000008152600401611198906131fa565b60405180910390fd5b6111aa81611727565b50565b60007f780e9d63000000000000000000000000000000000000000000000000000000007bffffffffffffffffffffffffffffffffffffffffffffffffffffffff1916827bffffffffffffffffffffffffffffffffffffffffffffffffffffffff19161480611220575061121f82611bbe565b5b9050919050565b60008073ffffffffffffffffffffffffffffffffffffffff166002600084815260200190815260200160002060009054906101000a900473ffffffffffffffffffffffffffffffffffffffff1673ffffffffffffffffffffffffffffffffffffffff1614159050919050565b600033905090565b816004600083815260200190815260200160002060006101000a81548173ffffffffffffffffffffffffffffffffffffffff021916908373ffffffffffffffffffffffffffffffffffffffff160217905550808273ffffffffffffffffffffffffffffffffffffffff1661130e83610b35565b73ffffffffffffffffffffffffffffffffffffffff167f8c5be1e5ebec7d5bd14f71427d1e84f3dd0314c0f7b2291e5b200ac8c7c3b92560405160405180910390a45050565b600061135f82611227565b61139e576040517f08c379a00000000000000000000000000000000000000000000000000000000081526004016113959061329a565b60405180910390fd5b60006113a983610b35565b90508073ffffffffffffffffffffffffffffffffffffffff168473ffffffffffffffffffffffffffffffffffffffff1614806113eb57506113ea8185611021565b5b8061142957508373ffffffffffffffffffffffffffffffffffffffff16611411846106b1565b73ffffffffffffffffffffffffffffffffffffffff16145b91505092915050565b8273ffffffffffffffffffffffffffffffffffffffff1661145282610b35565b73ffffffffffffffffffffffffffffffffffffffff16146114a8576040517f08c379a000000000000000000000000000000000000000000000000000000000815260040161149f9061321a565b60405180910390fd5b600073ffffffffffffffffffffffffffffffffffffffff168273ffffffffffffffffffffffffffffffffffffffff161415611518576040517f08c379a000000000000000000000000000000000000000000000000000000000815260040161150f9061325a565b60405180910390fd5b611523838383611ca0565b61152e60008261129b565b6001600360008573ffffffffffffffffffffffffffffffffffffffff1673ffffffffffffffffffffffffffffffffffffffff168152602001908152602001600020600082825461157e91906135c6565b925050819055506001600360008473ffffffffffffffffffffffffffffffffffffffff1673ffffffffffffffffffffffffffffffffffffffff16815260200190815260200160002060008282546115d5919061353f565b92505081905550816002600083815260200190815260200160002060006101000a81548173ffffffffffffffffffffffffffffffffffffffff021916908373ffffffffffffffffffffffffffffffffffffffff160217905550808273ffffffffffffffffffffffffffffffffffffffff168473ffffffffffffffffffffffffffffffffffffffff167fddf252ad1be2c89b69c2b068fc378daa952ba7f163c4a11628f55a4df523b3ef60405160405180910390a4611694838383611cb0565b505050565b7f000000000000000000000000000000000000000000000000000000000000000073ffffffffffffffffffffffffffffffffffffffff166351cff8d9826040518263ffffffff1660e01b81526004016116f29190613116565b600060405180830381600087803b15801561170c57600080fd5b505af1158015611720573d6000803e3d6000fd5b5050505050565b6000600b60009054906101000a900473ffffffffffffffffffffffffffffffffffffffff16905081600b60006101000a81548173ffffffffffffffffffffffffffffffffffffffff021916908373ffffffffffffffffffffffffffffffffffffffff1602179055508173ffffffffffffffffffffffffffffffffffffffff168173ffffffffffffffffffffffffffffffffffffffff167f8be0079c531659141344cd1fd0a4f28419497f9722a3daafe3b4186f6b6457e060405160405180910390a35050565b8173ffffffffffffffffffffffffffffffffffffffff168373ffffffffffffffffffffffffffffffffffffffff16141561185c576040517f08c379a00000000000000000000000000000000000000000000000000000000081526004016118539061327a565b60405180910390fd5b80600560008573ffffffffffffffffffffffffffffffffffffffff1673ffffffffffffffffffffffffffffffffffffffff16815260200190815260200160002060008473ffffffffffffffffffffffffffffffffffffffff1673ffffffffffffffffffffffffffffffffffffffff16815260200190815260200160002060006101000a81548160ff0219169083151502179055508173ffffffffffffffffffffffffffffffffffffffff168373ffffffffffffffffffffffffffffffffffffffff167f17307eab39ab6107e8899845ad3d59bd9653f200f220920489ca2b5937696c318360405161194d919061317d565b60405180910390a3505050565b611965848484611432565b61197184848484611cb5565b6119b0576040517f08c379a00000000000000000000000000000000000000000000000000000000081526004016119a7906131da565b60405180910390fd5b50505050565b60606119c182611227565b611a00576040517f08c379a00000000000000000000000000000000000000000000000000000000081526004016119f79061335a565b60405180910390fd5b6000600a60008481526020019081526020016000208054611a20906136c2565b80601f0160208091040260200160405190810160405280929190818152602001828054611a4c906136c2565b8015611a995780601f10611a6e57610100808354040283529160200191611a99565b820191906000526020600020905b815481529060010190602001808311611a7c57829003601f168201915b505050505090506000611aaa611e4c565b9050600081511415611ac0578192505050611b03565b600082511115611af5578082604051602001611add9291906130d7565b60405160208183030381529060405292505050611b03565b611afe84611e63565b925050505b919050565b600081600001549050919050565b6001816000016000828254019250508190555050565b611b46828260405180602001604052806000815250611f0a565b5050565b611b5382611227565b611b92576040517f08c379a0000000000000000000000000000000000000000000000000000000008152600401611b899061331a565b60405180910390fd5b80600a60008481526020019081526020016000209080519060200190611bb992919061280a565b505050565b60007f80ac58cd000000000000000000000000000000000000000000000000000000007bffffffffffffffffffffffffffffffffffffffffffffffffffffffff1916827bffffffffffffffffffffffffffffffffffffffffffffffffffffffff19161480611c8957507f5b5e139f000000000000000000000000000000000000000000000000000000007bffffffffffffffffffffffffffffffffffffffffffffffffffffffff1916827bffffffffffffffffffffffffffffffffffffffffffffffffffffffff1916145b80611c995750611c9882611f65565b5b9050919050565b611cab838383611fcf565b505050565b505050565b6000611cd68473ffffffffffffffffffffffffffffffffffffffff166120e3565b15611e3f578373ffffffffffffffffffffffffffffffffffffffff1663150b7a02611cff611293565b8786866040518563ffffffff1660e01b8152600401611d219493929190613131565b602060405180830381600087803b158015611d3b57600080fd5b505af1925050508015611d6c57506040513d601f19601f82011682018060405250810190611d699190612c5d565b60015b611def573d8060008114611d9c576040519150601f19603f3d011682016040523d82523d6000602084013e611da1565b606091505b50600081511415611de7576040517f08c379a0000000000000000000000000000000000000000000000000000000008152600401611dde906131da565b60405180910390fd5b805181602001fd5b63150b7a0260e01b7bffffffffffffffffffffffffffffffffffffffffffffffffffffffff1916817bffffffffffffffffffffffffffffffffffffffffffffffffffffffff191614915050611e44565b600190505b949350505050565b606060405180602001604052806000815250905090565b6060611e6e82611227565b611ead576040517f08c379a0000000000000000000000000000000000000000000000000000000008152600401611ea4906133ba565b60405180910390fd5b6000611eb7611e4c565b90506000815111611ed75760405180602001604052806000815250611f02565b80611ee184612106565b604051602001611ef29291906130d7565b6040516020818303038152906040525b915050919050565b611f1483836122b3565b611f216000848484611cb5565b611f60576040517f08c379a0000000000000000000000000000000000000000000000000000000008152600401611f57906131da565b60405180910390fd5b505050565b60007f01ffc9a7000000000000000000000000000000000000000000000000000000007bffffffffffffffffffffffffffffffffffffffffffffffffffffffff1916827bffffffffffffffffffffffffffffffffffffffffffffffffffffffff1916149050919050565b611fda83838361248d565b600073ffffffffffffffffffffffffffffffffffffffff168373ffffffffffffffffffffffffffffffffffffffff16141561201d5761201881612492565b61205c565b8173ffffffffffffffffffffffffffffffffffffffff168373ffffffffffffffffffffffffffffffffffffffff161461205b5761205a83826124db565b5b5b600073ffffffffffffffffffffffffffffffffffffffff168273ffffffffffffffffffffffffffffffffffffffff16141561209f5761209a81612648565b6120de565b8273ffffffffffffffffffffffffffffffffffffffff168273ffffffffffffffffffffffffffffffffffffffff16146120dd576120dc828261278b565b5b5b505050565b6000808273ffffffffffffffffffffffffffffffffffffffff163b119050919050565b6060600082141561214e576040518060400160405280600181526020017f300000000000000000000000000000000000000000000000000000000000000081525090506122ae565b600082905060005b6000821461218057808061216990613725565b915050600a826121799190613595565b9150612156565b60008167ffffffffffffffff8111156121c2577f4e487b7100000000000000000000000000000000000000000000000000000000600052604160045260246000fd5b6040519080825280601f01601f1916602001820160405280156121f45781602001600182028036833780820191505090505b5090505b600085146122a75760018261220d91906135c6565b9150600a8561221c919061376e565b6030612228919061353f565b60f81b818381518110612264577f4e487b7100000000000000000000000000000000000000000000000000000000600052603260045260246000fd5b60200101907effffffffffffffffffffffffffffffffffffffffffffffffffffffffffffff1916908160001a905350600a856122a09190613595565b94506121f8565b8093505050505b919050565b600073ffffffffffffffffffffffffffffffffffffffff168273ffffffffffffffffffffffffffffffffffffffff161415612323576040517f08c379a000000000000000000000000000000000000000000000000000000000815260040161231a9061333a565b60405180910390fd5b61232c81611227565b1561236c576040517f08c379a00000000000000000000000000000000000000000000000000000000081526004016123639061323a565b60405180910390fd5b61237860008383611ca0565b6001600360008473ffffffffffffffffffffffffffffffffffffffff1673ffffffffffffffffffffffffffffffffffffffff16815260200190815260200160002060008282546123c8919061353f565b92505081905550816002600083815260200190815260200160002060006101000a81548173ffffffffffffffffffffffffffffffffffffffff021916908373ffffffffffffffffffffffffffffffffffffffff160217905550808273ffffffffffffffffffffffffffffffffffffffff16600073ffffffffffffffffffffffffffffffffffffffff167fddf252ad1be2c89b69c2b068fc378daa952ba7f163c4a11628f55a4df523b3ef60405160405180910390a461248960008383611cb0565b5050565b505050565b6008805490506009600083815260200190815260200160002081905550600881908060018154018082558091505060019003906000526020600020016000909190919091505550565b600060016124e884610be7565b6124f291906135c6565b90506000600760008481526020019081526020016000205490508181146125d7576000600660008673ffffffffffffffffffffffffffffffffffffffff1673ffffffffffffffffffffffffffffffffffffffff168152602001908152602001600020600084815260200190815260200160002054905080600660008773ffffffffffffffffffffffffffffffffffffffff1673ffffffffffffffffffffffffffffffffffffffff168152602001908152602001600020600084815260200190815260200160002081905550816007600083815260200190815260200160002081905550505b6007600084815260200190815260200160002060009055600660008573ffffffffffffffffffffffffffffffffffffffff1673ffffffffffffffffffffffffffffffffffffffff16815260200190815260200160002060008381526020019081526020016000206000905550505050565b6000600160088054905061265c91906135c6565b90506000600960008481526020019081526020016000205490506000600883815481106126b2577f4e487b7100000000000000000000000000000000000000000000000000000000600052603260045260246000fd5b9060005260206000200154905080600883815481106126fa577f4e487b7100000000000000000000000000000000000000000000000000000000600052603260045260246000fd5b90600052602060002001819055508160096000838152602001908152602001600020819055506009600085815260200190815260200160002060009055600880548061276f577f4e487b7100000000000000000000000000000000000000000000000000000000600052603160045260246000fd5b6001900381819060005260206000200160009055905550505050565b600061279683610be7565b905081600660008573ffffffffffffffffffffffffffffffffffffffff1673ffffffffffffffffffffffffffffffffffffffff168152602001908152602001600020600083815260200190815260200160002081905550806007600084815260200190815260200160002081905550505050565b828054612816906136c2565b90600052602060002090601f016020900481019282612838576000855561287f565b82601f1061285157805160ff191683800117855561287f565b8280016001018555821561287f579182015b8281111561287e578251825591602001919060010190612863565b5b50905061288c9190612890565b5090565b5b808211156128a9576000816000905550600101612891565b5090565b60006128c06128bb8461349a565b613475565b9050828152602081018484840111156128d857600080fd5b6128e3848285613680565b509392505050565b60006128fe6128f9846134cb565b613475565b90508281526020810184848401111561291657600080fd5b612921848285613680565b509392505050565b60008135905061293881613e29565b92915050565b60008135905061294d81613e40565b92915050565b60008135905061296281613e57565b92915050565b60008135905061297781613e6e565b92915050565b60008151905061298c81613e6e565b92915050565b600082601f8301126129a357600080fd5b81356129b38482602086016128ad565b91505092915050565b600082601f8301126129cd57600080fd5b81356129dd8482602086016128eb565b91505092915050565b6000813590506129f581613e85565b92915050565b600081519050612a0a81613e85565b92915050565b600060208284031215612a2257600080fd5b6000612a3084828501612929565b91505092915050565b600060208284031215612a4b57600080fd5b6000612a598482850161293e565b91505092915050565b60008060408385031215612a7557600080fd5b6000612a8385828601612929565b9250506020612a9485828601612929565b9150509250929050565b600080600060608486031215612ab357600080fd5b6000612ac186828701612929565b9350506020612ad286828701612929565b9250506040612ae3868287016129e6565b9150509250925092565b60008060008060808587031215612b0357600080fd5b6000612b1187828801612929565b9450506020612b2287828801612929565b9350506040612b33878288016129e6565b925050606085013567ffffffffffffffff811115612b5057600080fd5b612b5c87828801612992565b91505092959194509250565b60008060408385031215612b7b57600080fd5b6000612b8985828601612929565b9250506020612b9a85828601612953565b9150509250929050565b60008060408385031215612bb757600080fd5b6000612bc585828601612929565b925050602083013567ffffffffffffffff811115612be257600080fd5b612bee858286016129bc565b9150509250929050565b60008060408385031215612c0b57600080fd5b6000612c1985828601612929565b9250506020612c2a858286016129e6565b9150509250929050565b600060208284031215612c4657600080fd5b6000612c5484828501612968565b91505092915050565b600060208284031215612c6f57600080fd5b6000612c7d8482850161297d565b91505092915050565b600060208284031215612c9857600080fd5b600082013567ffffffffffffffff811115612cb257600080fd5b612cbe848285016129bc565b91505092915050565b600060208284031215612cd957600080fd5b6000612ce7848285016129e6565b91505092915050565b600060208284031215612d0257600080fd5b6000612d10848285016129fb565b91505092915050565b612d228161360c565b82525050565b612d31816135fa565b82525050565b612d408161361e565b82525050565b6000612d51826134fc565b612d5b8185613512565b9350612d6b81856020860161368f565b612d748161385b565b840191505092915050565b6000612d8a82613507565b612d948185613523565b9350612da481856020860161368f565b612dad8161385b565b840191505092915050565b6000612dc382613507565b612dcd8185613534565b9350612ddd81856020860161368f565b80840191505092915050565b6000612df6602b83613523565b9150612e018261386c565b604082019050919050565b6000612e19603283613523565b9150612e24826138bb565b604082019050919050565b6000612e3c602683613523565b9150612e478261390a565b604082019050919050565b6000612e5f602583613523565b9150612e6a82613959565b604082019050919050565b6000612e82601c83613523565b9150612e8d826139a8565b602082019050919050565b6000612ea5602483613523565b9150612eb0826139d1565b604082019050919050565b6000612ec8601983613523565b9150612ed382613a20565b602082019050919050565b6000612eeb602c83613523565b9150612ef682613a49565b604082019050919050565b6000612f0e603883613523565b9150612f1982613a98565b604082019050919050565b6000612f31602a83613523565b9150612f3c82613ae7565b604082019050919050565b6000612f54602983613523565b9150612f5f82613b36565b604082019050919050565b6000612f77602e83613523565b9150612f8282613b85565b604082019050919050565b6000612f9a602083613523565b9150612fa582613bd4565b602082019050919050565b6000612fbd603183613523565b9150612fc882613bfd565b604082019050919050565b6000612fe0602c83613523565b9150612feb82613c4c565b604082019050919050565b6000613003602083613523565b915061300e82613c9b565b602082019050919050565b6000613026602f83613523565b915061303182613cc4565b604082019050919050565b6000613049602183613523565b915061305482613d13565b604082019050919050565b600061306c603183613523565b915061307782613d62565b604082019050919050565b600061308f601283613523565b915061309a82613db1565b602082019050919050565b60006130b2602c83613523565b91506130bd82613dda565b604082019050919050565b6130d181613676565b82525050565b60006130e38285612db8565b91506130ef8284612db8565b91508190509392505050565b60006020820190506131106000830184612d28565b92915050565b600060208201905061312b6000830184612d19565b92915050565b60006080820190506131466000830187612d28565b6131536020830186612d28565b61316060408301856130c8565b81810360608301526131728184612d46565b905095945050505050565b60006020820190506131926000830184612d37565b92915050565b600060208201905081810360008301526131b28184612d7f565b905092915050565b600060208201905081810360008301526131d381612de9565b9050919050565b600060208201905081810360008301526131f381612e0c565b9050919050565b6000602082019050818103600083015261321381612e2f565b9050919050565b6000602082019050818103600083015261323381612e52565b9050919050565b6000602082019050818103600083015261325381612e75565b9050919050565b6000602082019050818103600083015261327381612e98565b9050919050565b6000602082019050818103600083015261329381612ebb565b9050919050565b600060208201905081810360008301526132b381612ede565b9050919050565b600060208201905081810360008301526132d381612f01565b9050919050565b600060208201905081810360008301526132f381612f24565b9050919050565b6000602082019050818103600083015261331381612f47565b9050919050565b6000602082019050818103600083015261333381612f6a565b9050919050565b6000602082019050818103600083015261335381612f8d565b9050919050565b6000602082019050818103600083015261337381612fb0565b9050919050565b6000602082019050818103600083015261339381612fd3565b9050919050565b600060208201905081810360008301526133b381612ff6565b9050919050565b600060208201905081810360008301526133d381613019565b9050919050565b600060208201905081810360008301526133f38161303c565b9050919050565b600060208201905081810360008301526134138161305f565b9050919050565b6000602082019050818103600083015261343381613082565b9050919050565b60006020820190508181036000830152613453816130a5565b9050919050565b600060208201905061346f60008301846130c8565b92915050565b600061347f613490565b905061348b82826136f4565b919050565b6000604051905090565b600067ffffffffffffffff8211156134b5576134b461382c565b5b6134be8261385b565b9050602081019050919050565b600067ffffffffffffffff8211156134e6576134e561382c565b5b6134ef8261385b565b9050602081019050919050565b600081519050919050565b600081519050919050565b600082825260208201905092915050565b600082825260208201905092915050565b600081905092915050565b600061354a82613676565b915061355583613676565b9250827fffffffffffffffffffffffffffffffffffffffffffffffffffffffffffffffff0382111561358a5761358961379f565b5b828201905092915050565b60006135a082613676565b91506135ab83613676565b9250826135bb576135ba6137ce565b5b828204905092915050565b60006135d182613676565b91506135dc83613676565b9250828210156135ef576135ee61379f565b5b828203905092915050565b600061360582613656565b9050919050565b600061361782613656565b9050919050565b60008115159050919050565b60007fffffffff0000000000000000000000000000000000000000000000000000000082169050919050565b600073ffffffffffffffffffffffffffffffffffffffff82169050919050565b6000819050919050565b82818337600083830152505050565b60005b838110156136ad578082015181840152602081019050613692565b838111156136bc576000848401525b50505050565b600060028204905060018216806136da57607f821691505b602082108114156136ee576136ed6137fd565b5b50919050565b6136fd8261385b565b810181811067ffffffffffffffff8211171561371c5761371b61382c565b5b80604052505050565b600061373082613676565b91507fffffffffffffffffffffffffffffffffffffffffffffffffffffffffffffffff8214156137635761376261379f565b5b600182019050919050565b600061377982613676565b915061378483613676565b925082613794576137936137ce565b5b828206905092915050565b7f4e487b7100000000000000000000000000000000000000000000000000000000600052601160045260246000fd5b7f4e487b7100000000000000000000000000000000000000000000000000000000600052601260045260246000fd5b7f4e487b7100000000000000000000000000000000000000000000000000000000600052602260045260246000fd5b7f4e487b7100000000000000000000000000000000000000000000000000000000600052604160045260246000fd5b6000601f19601f8301169050919050565b7f455243373231456e756d657261626c653a206f776e657220696e646578206f7560008201527f74206f6620626f756e6473000000000000000000000000000000000000000000602082015250565b7f4552433732313a207472616e7366657220746f206e6f6e20455243373231526560008201527f63656976657220696d706c656d656e7465720000000000000000000000000000602082015250565b7f4f776e61626c653a206e6577206f776e657220697320746865207a65726f206160008201527f6464726573730000000000000000000000000000000000000000000000000000602082015250565b7f4552433732313a207472616e736665722066726f6d20696e636f72726563742060008201527f6f776e6572000000000000000000000000000000000000000000000000000000602082015250565b7f4552433732313a20746f6b656e20616c7265616479206d696e74656400000000600082015250565b7f4552433732313a207472616e7366657220746f20746865207a65726f2061646460008201527f7265737300000000000000000000000000000000000000000000000000000000602082015250565b7f4552433732313a20617070726f766520746f2063616c6c657200000000000000600082015250565b7f4552433732313a206f70657261746f7220717565727920666f72206e6f6e657860008201527f697374656e7420746f6b656e0000000000000000000000000000000000000000602082015250565b7f4552433732313a20617070726f76652063616c6c6572206973206e6f74206f7760008201527f6e6572206e6f7220617070726f76656420666f7220616c6c0000000000000000602082015250565b7f4552433732313a2062616c616e636520717565727920666f7220746865207a6560008201527f726f206164647265737300000000000000000000000000000000000000000000602082015250565b7f4552433732313a206f776e657220717565727920666f72206e6f6e657869737460008201527f656e7420746f6b656e0000000000000000000000000000000000000000000000602082015250565b7f45524337323155524953746f726167653a2055524920736574206f66206e6f6e60008201527f6578697374656e7420746f6b656e000000000000000000000000000000000000602082015250565b7f4552433732313a206d696e7420746f20746865207a65726f2061646472657373600082015250565b7f45524337323155524953746f726167653a2055524920717565727920666f722060008201527f6e6f6e6578697374656e7420746f6b656e000000000000000000000000000000602082015250565b7f4552433732313a20617070726f76656420717565727920666f72206e6f6e657860008201527f697374656e7420746f6b656e0000000000000000000000000000000000000000602082015250565b7f4f776e61626c653a2063616c6c6572206973206e6f7420746865206f776e6572600082015250565b7f4552433732314d657461646174613a2055524920717565727920666f72206e6f60008201527f6e6578697374656e7420746f6b656e0000000000000000000000000000000000602082015250565b7f4552433732313a20617070726f76616c20746f2063757272656e74206f776e6560008201527f7200000000000000000000000000000000000000000000000000000000000000602082015250565b7f4552433732313a207472616e736665722063616c6c6572206973206e6f74206f60008201527f776e6572206e6f7220617070726f766564000000000000000000000000000000602082015250565b7f4d617820737570706c7920726561636865640000000000000000000000000000600082015250565b7f455243373231456e756d657261626c653a20676c6f62616c20696e646578206f60008201527f7574206f6620626f756e64730000000000000000000000000000000000000000602082015250565b613e32816135fa565b8114613e3d57600080fd5b50565b613e498161360c565b8114613e5457600080fd5b50565b613e608161361e565b8114613e6b57600080fd5b50565b613e778161362a565b8114613e8257600080fd5b50565b613e8e81613676565b8114613e9957600080fd5b5056fea26469706673582212202b8046dfe529db8b362490ee23a015715ca0bec04bc5446dcf6d51c068beb10d64736f6c63430008040033608060405234801561001057600080fd5b5061002d61002261003260201b60201c565b61003a60201b60201c565b6100fe565b600033905090565b60008060009054906101000a900473ffffffffffffffffffffffffffffffffffffffff169050816000806101000a81548173ffffffffffffffffffffffffffffffffffffffff021916908373ffffffffffffffffffffffffffffffffffffffff1602179055508173ffffffffffffffffffffffffffffffffffffffff168173ffffffffffffffffffffffffffffffffffffffff167f8be0079c531659141344cd1fd0a4f28419497f9722a3daafe3b4186f6b6457e060405160405180910390a35050565b610bfc8061010d6000396000f3fe6080604052600436106100555760003560e01c806351cff8d91461005a578063715018a6146100835780638da5cb5b1461009a578063e3a9db1a146100c5578063f2fde38b14610102578063f340fa011461012b575b600080fd5b34801561006657600080fd5b50610081600480360381019061007c91906107f5565b610147565b005b34801561008f57600080fd5b506100986102c7565b005b3480156100a657600080fd5b506100af61034f565b6040516100bc9190610900565b60405180910390f35b3480156100d157600080fd5b506100ec60048036038101906100e791906107cc565b610378565b6040516100f9919061099b565b60405180910390f35b34801561010e57600080fd5b50610129600480360381019061012491906107cc565b6103c1565b005b610145600480360381019061014091906107cc565b6104b9565b005b61014f6105e2565b73ffffffffffffffffffffffffffffffffffffffff1661016d61034f565b73ffffffffffffffffffffffffffffffffffffffff16146101c3576040517f08c379a00000000000000000000000000000000000000000000000000000000081526004016101ba9061097b565b60405180910390fd5b6000600160008373ffffffffffffffffffffffffffffffffffffffff1673ffffffffffffffffffffffffffffffffffffffff1681526020019081526020016000205490506000600160008473ffffffffffffffffffffffffffffffffffffffff1673ffffffffffffffffffffffffffffffffffffffff16815260200190815260200160002081905550610275818373ffffffffffffffffffffffffffffffffffffffff166105ea90919063ffffffff16565b8173ffffffffffffffffffffffffffffffffffffffff167f7084f5476618d8e60b11ef0d7d3f06914655adb8793e28ff7f018d4c76d505d5826040516102bb919061099b565b60405180910390a25050565b6102cf6105e2565b73ffffffffffffffffffffffffffffffffffffffff166102ed61034f565b73ffffffffffffffffffffffffffffffffffffffff1614610343576040517f08c379a000000000000000000000000000000000000000000000000000000000815260040161033a9061097b565b60405180910390fd5b61034d60006106de565b565b60008060009054906101000a900473ffffffffffffffffffffffffffffffffffffffff16905090565b6000600160008373ffffffffffffffffffffffffffffffffffffffff1673ffffffffffffffffffffffffffffffffffffffff168152602001908152602001600020549050919050565b6103c96105e2565b73ffffffffffffffffffffffffffffffffffffffff166103e761034f565b73ffffffffffffffffffffffffffffffffffffffff161461043d576040517f08c379a00000000000000000000000000000000000000000000000000000000081526004016104349061097b565b60405180910390fd5b600073ffffffffffffffffffffffffffffffffffffffff168173ffffffffffffffffffffffffffffffffffffffff1614156104ad576040517f08c379a00000000000000000000000000000000000000000000000000000000081526004016104a49061091b565b60405180910390fd5b6104b6816106de565b50565b6104c16105e2565b73ffffffffffffffffffffffffffffffffffffffff166104df61034f565b73ffffffffffffffffffffffffffffffffffffffff1614610535576040517f08c379a000000000000000000000000000000000000000000000000000000000815260040161052c9061097b565b60405180910390fd5b600034905080600160008473ffffffffffffffffffffffffffffffffffffffff1673ffffffffffffffffffffffffffffffffffffffff168152602001908152602001600020600082825461058991906109d2565b925050819055508173ffffffffffffffffffffffffffffffffffffffff167f2da466a7b24304f47e87fa2e1e5a81b9831ce54fec19055ce277ca2f39ba42c4826040516105d6919061099b565b60405180910390a25050565b600033905090565b8047101561062d576040517f08c379a00000000000000000000000000000000000000000000000000000000081526004016106249061095b565b60405180910390fd5b60008273ffffffffffffffffffffffffffffffffffffffff1682604051610653906108eb565b60006040518083038185875af1925050503d8060008114610690576040519150601f19603f3d011682016040523d82523d6000602084013e610695565b606091505b50509050806106d9576040517f08c379a00000000000000000000000000000000000000000000000000000000081526004016106d09061093b565b60405180910390fd5b505050565b60008060009054906101000a900473ffffffffffffffffffffffffffffffffffffffff169050816000806101000a81548173ffffffffffffffffffffffffffffffffffffffff021916908373ffffffffffffffffffffffffffffffffffffffff1602179055508173ffffffffffffffffffffffffffffffffffffffff168173ffffffffffffffffffffffffffffffffffffffff167f8be0079c531659141344cd1fd0a4f28419497f9722a3daafe3b4186f6b6457e060405160405180910390a35050565b6000813590506107b181610b98565b92915050565b6000813590506107c681610baf565b92915050565b6000602082840312156107de57600080fd5b60006107ec848285016107a2565b91505092915050565b60006020828403121561080757600080fd5b6000610815848285016107b7565b91505092915050565b61082781610a28565b82525050565b600061083a6026836109c1565b915061084582610aa5565b604082019050919050565b600061085d603a836109c1565b915061086882610af4565b604082019050919050565b6000610880601d836109c1565b915061088b82610b43565b602082019050919050565b60006108a36020836109c1565b91506108ae82610b6c565b602082019050919050565b60006108c66000836109b6565b91506108d182610b95565b600082019050919050565b6108e581610a6c565b82525050565b60006108f6826108b9565b9150819050919050565b6000602082019050610915600083018461081e565b92915050565b600060208201905081810360008301526109348161082d565b9050919050565b6000602082019050818103600083015261095481610850565b9050919050565b6000602082019050818103600083015261097481610873565b9050919050565b6000602082019050818103600083015261099481610896565b9050919050565b60006020820190506109b060008301846108dc565b92915050565b600081905092915050565b600082825260208201905092915050565b60006109dd82610a6c565b91506109e883610a6c565b9250827fffffffffffffffffffffffffffffffffffffffffffffffffffffffffffffffff03821115610a1d57610a1c610a76565b5b828201905092915050565b6000610a3382610a4c565b9050919050565b6000610a4582610a4c565b9050919050565b600073ffffffffffffffffffffffffffffffffffffffff82169050919050565b6000819050919050565b7f4e487b7100000000000000000000000000000000000000000000000000000000600052601160045260246000fd5b7f4f776e61626c653a206e6577206f776e657220697320746865207a65726f206160008201527f6464726573730000000000000000000000000000000000000000000000000000602082015250565b7f416464726573733a20756e61626c6520746f2073656e642076616c75652c207260008201527f6563697069656e74206d61792068617665207265766572746564000000000000602082015250565b7f416464726573733a20696e73756666696369656e742062616c616e6365000000600082015250565b7f4f776e61626c653a2063616c6c6572206973206e6f7420746865206f776e6572600082015250565b50565b610ba181610a28565b8114610bac57600080fd5b50565b610bb881610a3a565b8114610bc357600080fd5b5056fea2646970667358221220b2a6db4c00e57e7ef608d5e81a53c60e6688cd2b85172cc39bb6858c6c6988ec64736f6c63430008040033",
  "linkReferences": {},
  "deployedLinkReferences": {}
}